:020000040002F8
:10600000687B0020C5630200CD630200CF630200FD
:10601000D1630200D3630200D563020000000000D8
:10602000000000000000000000000000D763020034
:10603000D963020000000000DB630200DD630200A0
:106040006D660200DF630200316A0200DF63020056
:10605000DF630200DF630200B1650200DF6302005C
:10606000DF630200196A0200DF630200DF630200DF
:10607000DF630200DF630200DF630200DF63020010
:10608000DF630200C1660200DF630200DF6302001B
:10609000DF630200DF63020079670200DF63020052
:1060A000DF630200DF630200DF630200DF630200E0
:1060B000DF630200DF630200000000000000000058
:1060C000DF630200DF630200DF630200DF630200C0
:1060D000D9660200DF630200DF63020000000000F7
:1060E00000000000000000000000000000000000B0
:1060F00000000000000000000000000000000000A0
:10610000000000000000000000000000000000008F
:10611000000000000000000000000000000000007F
:10612000000000000000000000000000000000006F
:10613000000000000000000000000000000000005F
:10614000000000000000000000000000000000004F
:10615000000000000000000000000000000000003F
:10616000000000000000000000000000000000002F
:10617000000000000000000000000000000000001F
:10618000000000000000000000000000000000000F
:1061900000000000000000000000000000000000FF
:1061A00000000000000000000000000000000000EF
:1061B00000000000000000000000000000000000DF
:1061C00000000000000000000000000000000000CF
:1061D00000000000000000000000000000000000BF
:1061E00000000000000000000000000000000000AF
:1061F000000000000000000000000000000000009F
:10620000DFF810D000F086F90048004799980200A6
:10621000AFF30080687B002030B450E8012F93B2C8
:10622000C48923448489A34228BF1B1B0489A34239
:1062300002BFBFF32F8F002007E0C3EA020340E84C
:106240000134002CE9D14FF001000A6030BC7047E6
:1062500050E8012FC2EA024240E801210029F7D1AB
:10626000704730B450E8022F1FFAA2F3C488A3424B
:1062700002BFBFF32F8F00200DE0C489234484891F
:10628000A34228BF1B1BC2EA034340E80234002C90
:10629000E8D14FF001000A6030BC704750E8022F8F
:1062A000C2EA224240E802210029F7D170470346A2
:1062B00053E8022FD988B2EB324F4FF0000017BFDE
:1062C00092B241EA014142EA014104E05A68B2EB6C
:1062D000324F08BF012043E80212002AE8D170477C
:1062E00030B4044654E8000F0D4644E80053002B38
:1062F000F8D1156030BC704730B4044654E8000F44
:1063000040EA010544E80053002BF7D1156030BC8A
:10631000704730B4044654E8000F00EA010544E831
:106320000053002BF7D1156030BC704730B40446E1
:1063300054E8000F80EA010544E80053002BF7D130
:10634000156030BC704730B4044654E8000F00EBD1
:10635000010544E80053002BF7D1156030BC7047AD
:1063600030B4044654E8000FA0EB010544E80053A4
:10637000002BF7D1156030BC704770B404464FF065
:10638000000054E8006F0D68AE4207BF44E80023E8
:10639000012044E800630E60002B1CBF0020F0E7E2
:1063A00070BC704730B4044654E8000F88422CBFDC
:1063B000451A054644E80053002BF5D1156030BC62
:1063C000704700000648804706480047FEE7FEE7A2
:1063D000FEE7FEE7FEE7FEE7FEE7FEE7FEE7FEE795
:1063E00091670200016202002DE9F05F054600207E
:1063F00092469B4688460646814640241BE0284636
:1064000041464746224600F074F853465A46C01AA1
:10641000914110D311461846224600F016F82D1A65
:1064200067EB01084F4622460120002100F00DF8DD
:1064300017EB00094E41201EA4F10104DFDC4846A1
:1064400031462A464346BDE8F09F202A04DB203A25
:1064500000FA02F1002070479140C2F1200320FAB7
:1064600003F319439040704700487047ACF70200AF
:1064700040EA01039B0703D009E008C9121F08C0C6
:10648000042AFAD203E011F8013B00F8013B521E46
:10649000F9D27047D2B201E000F8012B491EFBD2BD
:1064A00070470022F6E710B513460A46044619461F
:1064B000FFF7F0FF204610BD421C10F8011B002919
:1064C000FBD1801A704730B504460020034600E037
:1064D0005B1C934203D2E05CCD5C401BF8D030BD26
:1064E000034611F8012B00F8012B002AF9D11846B8
:1064F0007047202A04DB203A21FA02F0002170477D
:1065000021FA02F3D040C2F120029140084319461B
:1065100070470000064C074D06E0E06840F00103BC
:1065200094E8070098471034AC42F6D3FFF76CFEAE
:10653000AC000300CC00030070B58C1810F8015BB0
:1065400015F0070301D110F8013B2A1106D110F80C
:10655000012B03E010F8016B01F8016B5B1EF9D110
:106560002B0705D40023521E0DD401F8013BFAE796
:1065700010F8013BCB1A921C03E013F8015B01F801
:10658000015B521EF9D5A142D8D3002070BD10B5D1
:10659000182004F0AFFA182000BF4FF0A0410A46BF
:1065A000012303FA00F1C2F8081500BF00BF10BDB7
:1065B0002DE9F84F0026002000904FF48077012548
:1065C000002410E0384604F047FB40B100BF2548E6
:1065D0000068284018B1384604F030FB2E436D00A7
:1065E000381D87B2641C082CECD34FF4BE7004F045
:1065F00033FB50B14FF4BE7004F020FB46F0004670
:106600006A460121002004F0B3FAF0B210B301256C
:1066100000241DE005EA0600C0B100BF124850F892
:106620002400C0F30420814600BF0F4850F8240026
:10663000C0F301408246204601F0C4FE8046B8F116
:10664000000F02D051464846C04700BF6D00641C91
:10665000082CDFD306F0004010B1684607F084FA3A
:10666000BDE8F88F046300401065004010B54FF49A
:10667000807004F081F880B14FF4807004F085F8E8
:10668000012004F08BF80D48407930B901200B4906
:10669000487108460168002088474FF4827004F072
:1066A0006BF850B14FF4827004F06FF8022004F0E0
:1066B00075F8024801680120884710BDE8300020C5
:1066C00010B5034A1068034A1168884710BD0000DE
:1066D000683100206431002010B5042200210248F6
:1066E00002F09CFD10BD00000040024010B500F01B
:1066F000A7F910BD2DE9F047074688461646C24661
:1067000007EB47011B4800EBC109D9F8140020B181
:10671000012811D0022826D11EE0484600F0C8F911
:106720000546B54201D2002405E0344632465146C2
:10673000484600F004FA18E0484600F0B9F905466A
:10674000B54201D2284600E0304604462246514672
:10675000484600F0F4F908E032465146484600F059
:10676000B5F9044601E0002400BF00BF2046BDE8A3
:10677000F0870000F858002010B505F0FBFE10BDB2
:1067800001480249086070470090D003E8310020BA
:1067900010B503F0A3F928B190480088C0F3042095
:1067A0008F49086003F0F6F910B18E488E494867AA
:1067B00003F052FA30B18948E0380068C0F3423043
:1067C0008A49086003F076FA28B18948006820F009
:1067D00080708749086003F08FFA48B1002085492E
:1067E00008604FF08041C1F810018049091F08601E
:1067F00003F0B0FA18B103207C496431086003F05B
:10680000CBFA68B105207C49086001207A497831CB
:10681000086000207849083108603F20091F08609F
:1068200003F0DCFA002855D06C48E030006873496A
:1068300008606A48E4300068091D08606748E8306D
:106840000068091D08606548EC300068091D086093
:106850006248F0300068091D08606048F430006844
:10686000091D08605D48F8300068644920310860FF
:106870005A48FC300068091D086061480068091D1D
:1068800008605F48001D0068091D08605C4808300A
:106890000068091D08605A480C300068091D08602E
:1068A000574810300068554940310860544814304A
:1068B0000068091D0860524818300068091D08600A
:1068C0004F481C300068091D08604D4820300068A2
:1068D000091D086003F0D4F830B14048CC38006896
:1068E00000F04F004749086003F026F940B14648E0
:1068F000006800F0010018B16FF001004249086023
:1069000003F06AF928B14148006840F480603F49CB
:10691000086037487438006840F4700034497439AE
:10692000086000BF00BF00BFBFF34F8F00BF00BFB4
:1069300000BF00BF00BF00BFBFF36F8F00BF00BF2D
:1069400000BF00BF03F068F920B131480068274953
:106950001C31086000BF2E480838006800F0004075
:1069600028B92B48001F006800F0004090B30120B8
:1069700006F08CFC152026490839086006F090FCCA
:1069800015214FF01020C0F8041206F089FC0020F9
:1069900006F07CFC00BF00BF00BF00BF00BFBFF31C
:1069A0004F8F00BF00BF00BF1148F038006800F4EF
:1069B000E06018490843001D0D49F039086000BF28
:1069C00000BF00BFBFF34F8F00BF00BF00BF00BFBD
:1069D00000BFFDE7FFE7FFF7D3FE10BD2403001063
:1069E000403501400DF0ADBA00C007403C05004005
:1069F000FCED00E00C0100401056004020C50040B6
:106A000024040010E40E0040000400403C17004045
:106A1000081200100000FA0510B5042202490348CC
:106A200002F058FC10BD00008C5200200090004085
:106A300010B502490868804710BD0000F030002002
:106A400010B5124C02202061606111A0A0611349B1
:106A5000E1614FF4007121620021A1626162E16293
:106A60000BA0A0640E49E164102121650021A165FD
:106A70006165E1650BA1E01DFFF732FD0AA120462B
:106A8000FFF72EFD2020A07110BD0000E05800206F
:106A90005465726D696E616C0000000058590020E9
:106AA000585B00205254540053454747455200005C
:106AB00010B501460A69CB689A4204D88C68641EF6
:106AC000E41AA01801E0D41A601E10BD2DE9F047A9
:106AD0000446894617464FF0000AE56800BFD4F81F
:106AE0001080A84503D9A8EB0500461E04E0A5EBDD
:106AF0000800401CA1680E1AA068401BB04201D9D2
:106B0000304601E0A068401B0646BE4201D2304636
:106B100000E0384606466168481932464946FFF7A4
:106B2000A7FCB244B144BF1B3544A068A84200D1C1
:106B30000025E560002FD2D15046BDE8F0872DE951
:106B4000F047044689461546E668A068871BAF42B1
:106B500008D9616888192A464946FFF789FC7019E7
:106B6000E06010E0B8466168881942464946FFF780
:106B70007FFCA5EB070809EB070142466068FFF7B9
:106B800077FCC4F80C80BDE8F08702E008C8121F4B
:106B900008C1002AFAD170477047002001E001C106
:106BA000121F002AFBD170470146202908DA012074
:106BB00088400A4A104008B1012070470020FCE7D5
:106BC000402909DAA1F12000012202FA00F008B1FF
:106BD0000120F2E70020F0E70120EEE7FC06FFBD10
:106BE00000BFEFF31081084672B670472DE9F041FF
:106BF00007460C46264694F8078000250BE0C5EBB7
:106C0000C5008119384602F071F910B10120BDE8C4
:106C1000F081681CC5B24545F1DB0020F7E710B5EF
:106C200001220221002001F059F8044600BF1CB1E6
:106C3000072C01D0204610BD00BF072202210120F1
:106C400001F04CF8044600BF1CB1072C01D02046CF
:106C5000F1E700BF0A220021084601F03FF8044690
:106C600000BF1CB1072C01D02046E4E700BF002084
:106C7000E1E710B50446022000F0F2FE10BD00006E
:106C800010B5002407E00749096811F83400012114
:106C900005F0F6FD641C044800788442F3D300201C
:106CA00010BD0000083100200C3100202DE9F84310
:106CB00006460D4617460A2F02D20720BDE8F88384
:106CC00005F022FF38B905F0B5FE044600BF2046A6
:106CD00000B1F3E700BF184806601848057018486F
:106CE000076010211748FFF7DCFB0021164A1160EE
:106CF000516015E006EBC50814480068009098F84C
:106D000002008DF8010098F80000114A694605F06C
:106D10000DFE044600BF204600B1CFE700BF00BF14
:106D2000281EA5F10101CDB2E4D10A4A00210A488A
:106D300000F090F8C2E70000083100200C3100207C
:106D400010310020985200203831002050F4020009
:106D5000B9900200258802004CF4020010B572B60A
:106D600000BF04F011FF00BF00BF04F089FC002841
:106D7000FBD100BF00BF1E491E4A891AC908012263
:106D800042EA01401CA104F009FE00BF1D48006852
:106D900000F0010000B100BE00BF1549154A891A74
:106DA000C908022242EA014017A104F0F7FD00BF22
:106DB00000BF00BF00BF00BFBFF34F8F00BF00BFC9
:106DC00000BF1048E438006800F4E060124908434E
:106DD000001D0C49E439086000BF00BF00BFBFF3CD
:106DE0004F8F00BF00BF00BF00BF00BFFDE7000026
:106DF0007C010300DC000300466174616C20657255
:106E0000726F7200F0ED00E053797374656D20725B
:106E100065736574000000000000FA053EB5044685
:106E2000002000900190029002946A46002144F2F2
:106E30000100FFF793FF3EBD0246501A20F07F404D
:106E40007047000010B5024801F066FE10BD00005A
:106E50004031002030B503460C460AB9072030BD4A
:106E600019684FF0FF358D60CD604A61012C01D16A
:106E7000012000E0002008610020F0E72DE9F04744
:106E800005462C46FFF7DEFF0746E169086A00F079
:106E9000E5F84FEA5008B8F1050F01D9404600E087
:106EA00005208046E06990F8270008B9BDE8F08722
:106EB000A2694C2150680122425000BFA06940687D
:106EC000D0F84C65216922460868414600F05CF81C
:106ED00060690068B04207D0606906606069476019
:106EE00001206169087216E0606941683846FFF761
:106EF000A3FF81466069007A60B1484600F096F8C9
:106F0000E169096A884205D9002061690872204652
:106F100004F0E4F800BF00BFC8E7000038B513482C
:106F2000006800900823582211491248006802F0B6
:106F300083FF04460CB1204638BD0F4A69460F480E
:106F400001F0F0FD04460CB12046F5E701210B48A5
:106F500001F08EFE01230A4A1946084801F0AEFDF1
:106F60000120084908702046E6E7000064F40200AA
:106F7000A852002054F40200D5E302004031002062
:106F8000FFFF7F004C3100202DE9F84306460D46F7
:106F90009046344600200090684600F06FF84FF0AD
:106FA000FF33D4E9021059405840014308D102F0A0
:106FB00065F8401941F10001C4E90201012700E030
:106FC00000279DF8000000F05FF817B90020BDE829
:106FD000F883C4F81880206900B12561214600209B
:106FE00007F084FFF3E7F8B504462546002000903B
:106FF000684600F043F84FF0FF33D5E902105940DE
:107000005840014301D1002604E04FF0FF31A96050
:10701000E96001269DF8000000F036F80EB9002066
:10702000F8BD2946012007F061FFF9E72DE9F0419D
:1070300004460948A4FB001202230020A1FB035CC4
:1070400002FB03C201FB00219A0303462846FFF717
:10705000CBF9BDE8F081000040420F0070B5044656
:107060004FF48040A0FB04500146034A0023284609
:10707000FFF7BAF970BD000040420F0010B504469A
:10708000204607F0D7FB10BD70B5044625460E48D4
:107090008068B0B1ADB9FFF7A3FD06460A480068A5
:1070A0000A490860084840684FF0E021C1F804012F
:1070B0000020054988601EB900BF62B600BF00BF4E
:1070C00000BF00BF70BD00001053002000E100E0D1
:1070D0000146480C400408B9012070470020FCE735
:1070E000002114E00C48D0F81024012308E000BF70
:1070F000D0680079884201D1002303E0D06802689B
:10710000002AF4D100BF0BB108467047491C0A2978
:10711000E8DB4FF0FF30F8E7C054002070B50026E0
:1071200029480078C0B129488688DC2201682848AF
:1071300004F034F80446112C0AD0032C08D000BF08
:10714000254625B100BF2846FFF768FE00BF00BFF7
:1071500014B900201C4908702CE000221B491D486E
:1071600004F0D0FE044600BF254625B100BF2846E6
:10717000FFF754FE00BF00BF14488688DC22016878
:10718000134804F00BF80446112C0AD0032C08D045
:1071900000BF254625B100BF2846FFF73FFE00BFD0
:1071A00000BF1CB900200849087003E0012006490F
:1071B000087007E0074804F0F3FE18B902480078A9
:1071C0000028CAD000BF70BD443000203C300020F1
:1071D000A8F202000002030010B5044600BF0CB97B
:1071E0000E2010BD00BF00BF06480078012801D066
:1071F0000820F6E700BF04480168204607F044F87D
:10720000EFE70000E4300020D830002001460022E3
:1072100000BF09B90E20704700BF00BF086808B959
:107220000E20F8E700BF00BF486808B90E20F2E75B
:1072300000BF0020064B18600120064B1870064B5B
:1072400008681860054B486818601046E3E70000BE
:10725000E0300020E4300020D8300020DC30002076
:1072600070B504460D4600BF04B970BD00BF00BF35
:1072700005B9FAE700BF00BF14480078012800D024
:10728000F3E700BF2E462088112815D0302804D0FF
:10729000322807D0332814D109E0211D304606F0EA
:1072A000F5FA0FE0211D304606F002F80AE0211D34
:1072B000304606F087F905E0211D304606F00FFA4A
:1072C00000E000BF00BF00BFCFE70000E4300020B7
:1072D00070B504460D4600BF0CB90E2070BD00BF4E
:1072E00000BF0B480078012801D00820F6E700BF56
:1072F0000848006808B90820F0E794F8C80208B107
:107300001120EBE72946204601F062FBE6E700008A
:10731000E4300020E03000202DE9F843054688469F
:107320002E1D28881F2866D008DC10280DD01128B3
:1073300036D013284FD01B287CD13EE0212868D0BE
:107340003B2879D05628F7D184E0A98800224A4802
:1073500000F080F9044600BF274627B100BF384639
:10736000FFF75CFD00BF00BF072000F0E5FC04460E
:1073700000BF274627B100BF3846FFF74FFD00BFCB
:1073800000BFA9883D48FFF7A3FF044600BF27467A
:1073900027B100BF3846FFF741FD00BF00BF68E0DE
:1073A000337932883649374FC91BC908032747EA62
:1073B000014035A104F008FB5BE03079022809D1D7
:1073C0002F49304A891AC908032242EA01403AA1EA
:1073D00004F0E4FA4DE0A88800231A4685217FDFF7
:1073E000044600BF274627B100BF3846FFF716FD09
:1073F00000BF00BF3DE03088311D75DF044600BF8F
:10740000274627B100BF3846FFF708FD00BF00BF81
:107410002FE0314800680090A88869468FDF044655
:1074200000BF274627B100BF3846FFF7F7FC00BF73
:1074300000BF1EE01CE0FFE7A888132176DF0446AA
:1074400000BF274627B100BF3846FFF7E7FC00BF63
:1074500000BF0EE0A888132176DF044600BF274650
:1074600027B100BF3846FFF7D9FC00BF00BF00E0DE
:1074700000BF00BFBDE8F88370350020342A00202B
:107480007C010300DC000300446973636F6E6E656A
:10749000637465642E20636F6E6E5F68616E646CEA
:1074A000653A20307825782C20726561736F6E3ACA
:1074B0002030782578000000436F6E6E6563746934
:1074C0006F6E20526571756573742074696D6564A3
:1074D000206F75742E000000F8F2020070B50546AA
:1074E0000E462888102802D011282CD115E0174804
:1074F000006860B901F063F8044600BF34B1144875
:10750000006818B1204612490968884700BF0F4833
:107510000068401C0D49086016E00C480068401ED9
:107520000A4908600846006860B9FFF778FB04461E
:1075300000BF34B10648006818B120460449096804
:10754000884700BF00E000BF00BF70BDD4300020FE
:10755000D03000202DE9F04107460C46207820B1BC
:10756000012834D0022844D136E02349234A891A1D
:10757000C908032242EA014021A104F00FFA618800
:1075800004F10E02384600F065F8054600BF2E46AD
:1075900026B100BF3046FFF741FC00BF00BF3846B0
:1075A00000F090F9054600BF2E4626B100BF3046D8
:1075B000FFF734FC00BF00BF0F49104A891AC90801
:1075C000032242EA014013A104F0E8F911E0A18985
:1075D000A06800F08DF90CE00749084A891AC9082B
:1075E000032242EA014017A104F0D8F907F0B2F8EB
:1075F00000BF00BFBDE8F0817C010300DC00030098
:10760000446973636F7665727920636F6D706C6522
:1076100074652E00436F6E6E656374656420746FCD
:10762000206465766963652077697468204E6F729F
:1076300064696320554152542053657276696365CD
:107640002E000000446973636F6E6E656374656439
:107650002E00000070B504460E46154600BF0CB95A
:107660000E2070BD00BF66802DB16988E18028883A
:10767000A080A98821813146606902F093FDF0E77E
:1076800070B586B004460D461A4B0FCB01AE0FC63F
:1076900000BF14B90E2006B070BD00BF00BF0DB909
:1076A0000E20F8E700BF00BFA86808B90E20F2E777
:1076B00000BF214601A862DF064600BF304600B188
:1076C000E9E700BF20788DF816000120ADF814001E
:1076D0004FF6FF7060802868E060686820610020D5
:1076E000A08000212181A868606105A8FFF774FDD2
:1076F000D1E70000FCF3020070B586B005460E46E7
:10770000344604B10DB906B070BD60884FF6FF7104
:10771000884203D06088A988884200D0F3E728888F
:10772000112806D0392816D12946204606F084F8BB
:1077300012E0A888618888420CD1E06850B102202C
:107740008DF804004FF6FF70608001A92046E268C2
:10775000904700BF00E000BF00BF00BFD3E770B597
:1077600086B005460C46142101A8FEF79AFE04F1E6
:107770000E06207800283AD1A088012837D1A079B8
:107780002978884233D1002022E000EBC00136F88E
:107790001110022902D0032917D107E000EBC00124
:1077A00006EB41010A89ADF816200FE000EBC0019D
:1077B00006EB41010989ADF8121000EBC00106EBA0
:1077C00041014A89ADF8142000E000BF00BF401C11
:1077D000217A8142D9D8E86848B16088ADF80600BE
:1077E00000208DF8040001A92846EA68904706B0F9
:1077F00070BD000070B588B004460E46154600BF47
:1078000014B90E2008B070BD00BF20216846FEF7F5
:1078100048FEF42D0BDD1C491C4A891AC9080222B6
:1078200042EA01401AA104F0B9F80720EAE76088AB
:107830004FF6FF7188420BD11349144A891AC908BF
:10784000022242EA014017A104F0A8F80820D9E773
:1078500001208DF800001A48029003942189ADF8A8
:107860001210ADF816500021ADF814100696022043
:107870008DF8100001218DF8111062886946606949
:1078800002F0BAFCBEE70000FC000300DC000300CD
:10789000436F6E74656E7420746F6F206C6F6E67CB
:1078A0002E000000436F6E6E656374696F6E206812
:1078B000616E646C6520696E76616C69642E00008F
:1078C000078F020010B5044600BF0CB90E2010BD92
:1078D00000BF60884FF6FF71884201D0E08808B988
:1078E0000820F4E70121204600F02CFDEFE700001E
:1078F0007CB504460E461C49097801EBC102C2EB77
:1079000081111A4A02EB8100DC222146FEF7B0FD0C
:107910001548007800EBC001C1EB8010134901EB62
:1079200080000090DC20ADF804006946104804F0A7
:107930005AFB0546FFF7F2FB042D09D10D490E4A0B
:10794000891AC908032242EA01400CA104F026F872
:1079500005480078401C044908700846007814283F
:1079600001D1002008707CBD3A300020683800202A
:10797000000203007C010300DC00030044726F700E
:107980000000000038B504F0B3FD044600BF2546F2
:1079900025B100BF2846FFF741FA00BF00BF002015
:1079A00000906946012004F0F5FB044600BF25461F
:1079B00025B100BF2846FFF731FA00BF00BF684677
:1079C00004F0B6FC044600BF254625B100BF28469A
:1079D000FFF724FA00BF00BF38BD00000146014890
:1079E000405C704720F3020010B50146094B585C1B
:1079F00000BF4FF0A044234600BFD3F81045C44059
:107A000004F001040CB1012000E00020024682F0E5
:107A1000010010BD20F302007CB500240DE00848F1
:107A2000055D032600200090334602460146019082
:107A3000284603F016F800BF641C042CEFD37CBD6D
:107A400020F3020010B5044604F0010008B100F074
:107A50004BF804F0020008B1FFF7DEFF10BD000094
:107A600010B502460949885C00BF4FF0A04421468A
:107A7000D1F80435012484409C43C1F80845012411
:107A800084401C40C1F80C4500BF10BD1CF302002F
:107A900010B504460249085D012103F0ABF810BDA2
:107AA0001CF3020010B504460249085D002103F0F2
:107AB000A1F810BD1CF3020010B50146094B585C3B
:107AC00000BF4FF0A044234600BFD3F80445C44094
:107AD00004F001040CB1012000E00020024682F015
:107AE000010010BD1CF302007CB500240CE0094825
:107AF000055D0020009003460122114601902846B2
:107B000002F0AFFF00BF641C042CF0D300F004F8B7
:107B10007CBD00001CF3020010B5002403E02046E9
:107B2000FFF7B6FF641C042CF9D310BD10B5002478
:107B300003E02046FFF7B6FF641C042CF9D310BD08
:107B400002464FF0FF30002106E0054B5B5C93429C
:107B500001D1084602E0491C0429F6D300BF704752
:107B600020F3020070B505460C4600260648056065
:107B700014B1204607F012F80448006810B9FFF766
:107B80004EF80646304670BDD0300020D43000207C
:107B900010B5002000F0FAFA044600BF1CB1062C14
:107BA00001D0204610BD00BF012000F0EFFA0446CE
:107BB00000BF1CB1062C01D02046F3E700BF002017
:107BC000F0E700002DE9F04106460F464FF00008AF
:107BD00000243046FFF7B4FF0446042C3ED20FB316
:107BE000012F02D0022F38D130E004EB44002149AC
:107BF00011F8008004EB44000844407850B11E4A5C
:107C00004FF480411D480068FFF7BEF905460DB9E5
:107C10001948067004EB4400164908448078184956
:107C200008551AE015480068FFF7DDF91448005DB3
:107C300004EB44010F4A11448978884205D104EBD2
:107C400044001146084490F8028006E004EB44002A
:107C50000849084490F8018000BF00BFB8F1000F48
:107C600006D00848006818B14046064909688847A8
:107C7000BDE8F081F8510020C83000202CF302004C
:107C8000C9300020A030002010B50446042C03D2D7
:107C90002046FFF7A9FE10BD0020FCE770B50546A1
:107CA000042D05D00A2D14D1002004F0F9F811E0BC
:107CB00009494888132176DF0446082C08D000BF04
:107CC000264626B100BF3046FFF7A8F800BF00BF28
:107CD00000E000BF00BF70BD7035002030B5034626
:107CE0000020042B23D2012A07D1012903D103F15B
:107CF0000E04E4B200E00024224679B1012902D04A
:107D0000022911D104E003EB43040A4D2A550DE08A
:107D100003EB4304074D2C44627007E003EB43047C
:107D2000044D2C44A27001E0072000BF00E00720B2
:107D300030BD0000F851002070B50446002505480C
:107D4000007800F0010018B1204600F05BF805460D
:107D5000284670BD543000202DE9F04105460F46FD
:107D600000241F4805601F48076005F0020000B3AB
:107D7000002606E0012211463046FFF7AFFF044619
:107D8000761C042E01D2002CF4D034B940F23332E8
:107D900004211548FEF78AFF044614B9FEF770FF68
:107DA00004462CB9114A00211148FFF753F8044644
:107DB00000BF05F0010080B10120FFF743FE2CB9A0
:107DC0000C4A00210C48FFF745F804462CB90B4A31
:107DD00001210B48FFF73EF804462046BDE8F0813C
:107DE00054300020A030002030F30200F582020061
:107DF0002CF302002197020024F30200736C0200AE
:107E000028F302002DE9F047044600260025DA4851
:107E1000007820B10020D849087001F06DFC182CC2
:107E20007ED2DFE804F00C16174A7EB2F6F4F3F2C5
:107E3000F1F0EFEEEDECEBEAE9E8E7E6E5E401F07E
:107E40005BFCCE480068FFF7CEF80646CC480470CD
:107E50008DE100BF0020FFF72FFE58B10020FFF793
:107E600017FE022C02D14FF4E16001E04FF47A607A
:107E7000054609E00020FFF715FE022C01D1C820BD
:107E800001E04FF4C8700546BD4804704FF400404F
:107E9000A5FB00104FF47A73CF1840F100015A008F
:107EA00000233846FEF7A0FA814600224946B3482F
:107EB0000068FFF769F8064659E10020FFF7FCFD6E
:107EC00058B10020FFF7E4FD032C02D14FF44870B5
:107ED00001E04FF47A60054609E00020FFF7E2FD7B
:107EE000032C01D1C82001E04FF4C8700546A44816
:107EF00004704FF40040A5FB00104FF47A728F1805
:107F000040F10001520000233846FEF76DFA814629
:107F10000022494699480068FFF736F8064626E1F0
:107F200024E10020FFF7C8FD58B10020FFF7B0FDA5
:107F3000042C02D14FF47A6001E04FF47A600546D8
:107F40000AE00020FFF7AEFD042C02D14FF4C87008
:107F500001E04FF4C8700546894804704FF40040B2
:107F6000A5FB00104FF47A73CF1840F100015A00BE
:107F700000233846FEF738FA8146002249467F48FA
:107F80000068FFF701F80646F1E00020FFF794FDD6
:107F900050B10020FFF77CFD052C01D1C82001E085
:107FA0004FF47A60054609E00020FFF77BFD052CC1
:107FB00001D1C82001E04FF4C87005467048047034
:107FC0004FF40040A5FB00204FF47A73D71840F11E
:107FD00000015A0000233846FEF706FA81460022C7
:107FE000494666480068FEF7CFFF0646BFE0B8E0A6
:107FF000B6E0AAE0A1E098E092E05FE05DE05BE03F
:1080000059E057E051E042E033E024E015E00EE0B3
:10801000FFE70020FFF724FD59480470002240F2DA
:10802000666156480068FEF7AFFF06469FE00020F5
:10803000FFF738FD5248047099E001204E4908705E
:10804000FFF70EFD002240F266614C480068FEF723
:108050009BFF06468BE0012047490870FFF700FDB3
:1080600000224FF4005145480068FEF78DFF064698
:108070007DE0012040490870FFF7F2FC002240F249
:1080800066613E480068FEF77FFF06466FE001200C
:1080900039490870FFF7E4FC00224FF400513748DB
:1080A0000068FEF771FF064661E0FFF73FFD3448C8
:1080B00004705CE000BF00BF00BF00BF3148006833
:1080C000FEF791FF0646C4F1110515B30EBB012D55
:1080D00018D9A8B2C82148434FF4004180FB0110D1
:1080E0004FF47A728F1840F1000152000023384695
:1080F000FEF77AF981460022494622480068FEF7D9
:1081000043FF06460220FFF7CDFC01201E49087000
:1081100005E00220FFF7BCFC00201B49087026E0A8
:1081200001F0EAFA1648047021E001F0E5FA0020B7
:10813000FFF7B8FC1248047019E001F0DDFA0120E5
:10814000FFF7B0FC0E48047011E001F0D5FA0020F2
:10815000FFF7A8FC0120FFF7A5FC0948047006E022
:1081600000BFFFF7E3FC0648047000E000BF00BF5B
:108170003046BDE8F08700005130002024F30200B3
:108180005030002028F302005830002010B504467B
:108190000121204607F051F810BD00002DE9FC47F1
:1081A00004460D461646A71C4FF00108002001901A
:1081B00001A8FEF763FF3048406828602E484068F9
:1081C0002D498968411A2D480068401CA0EB01091F
:1081D00015E001212A4801F089FE01F0F7FA8246F4
:1081E0005146274801F082FE2348406822498968A9
:1081F000411A22480068401CA0EB010900BF4F450E
:10820000E7D8B8F1000F30D00021009176B1009985
:1082100021F00301491C0091009921F00401091D7E
:108220000091009964F3891100910DE0009921F00B
:108230000301891C0091009921F00401091D00919E
:10824000009964F39F5100910B4949680B4A1268E9
:108250001140094A0C3202EB810000990160064985
:10826000496839440C3A516000BF9DF80400FEF79C
:108270000BFF4046BDE8FC87C0540020A031002021
:10828000DC58002070B504460D460A2D03D10D219F
:108290002046FFF7F7FFA168481CA06020684554FE
:1082A000D4E90110884202D3204602F0D4FA70BD0E
:1082B0000448806803494968884201D10120704719
:1082C0000020FCE7C05400200246002108E0074BD4
:1082D0001B6803EBC1000378934200D17047491C2F
:1082E000034800788142F2DB0020F7E708310020E4
:1082F0000C31002010B5044620780221FFF762FC03
:1083000010BD000038B50E490120FFF725FD0446D9
:1083100000BF254625B100BF2846FEF77FFD00BF00
:1083200000BF69460020FFF71DFC044600BF25463C
:1083300025B100BF2846FEF771FD00BF00BF38BD64
:108340009D7C020070B58AB004460D462E46202161
:1083500002A8FEF7A6F8F0B28DF80400300A8DF8F6
:10836000050001208DF808000D4804900594E1886F
:10837000ADF81A100221ADF81E100021ADF81C1046
:1083800001A9089101208DF8180001218DF819101C
:10839000628802A9606901F02FFF0AB070BD000079
:1083A000078F02004FF0FF31054A42F820100828DD
:1083B00004DBFF23A0F10801503253547047000042
:1083C000305200200146024850F82100704700005A
:1083D000305200202DE9F04F03460C464FF0FF3994
:1083E0000AB1002000E0082084460AB1082000E01D
:1083F0000C208046614624E0154850F82100401CBE
:10840000F0B91D460846274616464FFA80FBDFF8AE
:1084100040A00AF1300A0AF805B0DFF834A04AF8A3
:1084200020704EB94FFA85FBA0F1080ADFF820E072
:108430000EF1500E0EF80AB000BF4FFA81F902E0BB
:10844000491C4145D8D300BF4846BDE8F08F000025
:1084500030520020014601484056704760520020CB
:1084600070B58AB004460E46202101A8FEF719F81F
:108470000020099094F8C60200EB8001C1EB801047
:1084800004EB400594F8C502B8B194F8C522521E19
:10849000D1B294F8C62202EB8203C3EB821204EB42
:1084A000420501EBC10305F10A0202EB4300028918
:1084B000521C92B2ADF8242002E0E888ADF8240006
:1084C0002889ADF8260003208DF80400099805904E
:1084D000049405480390324601A90448006801F05D
:1084E0008BFE0AB070BD0000A9890200DC300020BC
:1084F00070B505460DB9094C01E0084C083409E097
:10850000204601F0DFF8064606B904E02846716807
:10851000884700BFF4E700BF70BD00002452002070
:1085200010B504462CB90120064948700020FFF719
:10853000DFFF012C04D1012002498870FFF7D8FF2A
:1085400010BD00001C5200202DE9F04702461346E2
:108550008C46D3E90245DCE90267B6EB040877EB09
:10856000050002D30120BDE8F0870020FBE70246AA
:10857000002007E0536833F810308B4200D1704779
:10858000431C98B213888342F4DC00BFF7E710B5B0
:1085900002460B4600210DE0506830F811004FF6FE
:1085A000FF74A04204D1506820F81130002010BDA3
:1085B000481C81B210888842EEDC0420F7E710B531
:1085C000012200210846FFF789FB044600BF1CB1C9
:1085D000072C01D0204610BD00BF07220221012038
:1085E000FFF77CFB044600BF1CB1072C01D02046DE
:1085F000F1E700BF042202210020FFF76FFB0446D1
:1086000000BF1CB1072C01D02046E4E700BF0020CA
:10861000E1E700002DE9FF4105460C4600200290ED
:108620000390ADF80840ADF80A40009001906A460A
:1086300002A9284690DF0646002E32D0304604F0CC
:1086400073F8074619491A4A891AC908012242EAE9
:1086500001403B462A46174903F0B6F9BDF8000031
:1086600010B9BDF8020068B1BDF80230BDF80020B5
:108670000E490F4FC91BC908012747EA01400EA147
:1086800003F0A2F9BDF8040058B1BDF80420074971
:10869000074BC91AC908012343EA0140164903F0F0
:1086A00087F9304604B0BDE8F0810000E400030023
:1086B000DC0003009CF80200546865207265717547
:1086C00065737465642054582F5258207061636B31
:1086D0006574206C656E67746820697320746F6FB1
:1086E000206C6F6E672062792025752F2575206FAD
:1086F00063746574732E0000E8F8020010B5044638
:1087000021460248FFF72BF810BD0000703500200D
:108710007CB5002000900190084800900848019026
:108720006846FEF773FD044600BF254625B100BF2D
:108730002846FEF773FB00BF00BF7CBDFD8602002C
:108740001C3000202DE9F04F89B004460F469146B9
:108750004FF0000B20216846FDF7A3FE94F8C602F7
:1087600000EB8001C1EB801004EB400594F8C502DA
:1087700000EBC00105F10A0000EB410A94F8C502C4
:10878000401C2979884207D108AB00225146204677
:1087900000F04EFF834627E094F8C5621FE0287979
:1087A000401EB04202D14FF0000806E0701C00EB02
:1087B000C00105F10A0000EB410808AB42465146F2
:1087C000204600F035FF10B14FF0010B0AE0C24621
:1087D00094F8C502401C84F8C502701CC6B2287902
:1087E000B042DCDC00BF00BFBBF1000F05D10120AF
:1087F0003870002009B0BDE8F08F002038700420E8
:108800008DF80000089804900394044802904A46AA
:1088100069460348006801F0EFFCEBE7A989020014
:10882000DC3000202DE9F0418046002414E012489D
:10883000006800EBC405287804F0F2F80746687871
:10884000012800D100E00020784080F0010628785F
:10885000314600F0C5FA641C084800788442E6DB23
:108860000748D0E90010002359405840014301D087
:1088700006F05CFBBDE8F081083100200C310020DF
:108880003831002030B59FB004460D467C21684643
:10889000FDF707FEADF8025003208DF800000194AB
:1088A0000448006818B168460249096888471FB043
:1088B00030BD0000D83000202DE9F04104460D46BF
:1088C000164694F8C60200EB8001C1EB801004EB61
:1088D0004008404605F0B8FC0746E7B3D4F8CC02A0
:1088E000062838D204F53470D4F8CC1200EBC1104D
:1088F000468004F53471D4F8CC2201EBC211081D76
:1089000076224146FDF7B4FD45B1002104F53470EF
:10891000D4F8CC2200EBC210017007E0022104F56C
:108920003470D4F8CC2200EBC210017004F534701E
:10893000D4F8CC1200EBC110C767D4F8CC02401CAD
:10894000C4F8CC020549D4F8CC020968884202D1A7
:10895000204605F0B1F8BDE8F0810000E0300020CD
:108960002DE9F041A0B004460D46164694F8C60223
:1089700000EB8001C1EB801004EB4008404605F09D
:1089800063FC074657B17C22064901A8FDF770FD3C
:10899000ADF80660029501A8B84700BF20B0BDE859
:1089A000F081000050F302002DE9F04105460C462D
:1089B00016462746002087F8C80232462946384620
:1089C000FFF7CEFF31463846FFF75CFFBDE8F08188
:1089D000F0B589B004460E464FF4BA612046FDF763
:1089E00060FD202101A8FDF75CFD31461E480068AE
:1089F00001F0D8FB054600BF284608B109B0F0BD1C
:108A000000BFA4F8CA620020C4F8CC0284F8C702F0
:108A100084F8C60284F8C50294F8C60200EB80010F
:108A2000C1EB801004EB400794F8C6020F4901EB3C
:108A300080000068386002208DF804000120ADF845
:108A400014003968CDF81610049409480390324692
:108A500001A90548006801F0CFFB054615B90120C2
:108A600084F8C8022846C9E7DC3000200452002000
:108A7000A989020010B50021034801F04DFA04460F
:108A800084F3100010BD0000DC58002070B50546CE
:108A90000C464FF4803000FA04F1284600F085F9C6
:108AA00070BD70B505460C464FF4A07000EB840015
:108AB00086B23146284600F00BFA70BD2DE9F0472A
:108AC00004460D4616461F464FF4803000FA05F85E
:108AD0004FF4A07000EB85001FFA80F926F07F4666
:108AE0004146206803F038FB4146206803F025FB2F
:108AF0004946206803F017FB32462946206803F0F8
:108B000002FB4146206803F01EFB1FB1414620686E
:108B100003F028FBBDE8F08710B50446206803F099
:108B2000F7FA10BD2DE9F04704460D461746607967
:108B3000324941F820706079314901EBC000007979
:108B400068B108262F49304A891AC908022242EA28
:108B500001402EA102F022FF3046BDE8F0872988AF
:108B60002068C0F8081500BF94F90420AB781046BF
:108B70001946002808DB4FEA417C4FEA1C68DFF801
:108B8000B0C00CF800800BE04FEA417C4FEA1C6952
:108B9000DFF8A0C000F00F08A8F104080CF8089056
:108BA00000BF00BF94F90410084600280DDB00BF89
:108BB00000BF00F01F0301229A4043099B0003F10C
:108BC000E023C3F8002100BF00BF00BF00BF0120A9
:108BD00061790B4A02EBC10108716079114641F8D5
:108BE000304000260749084A891AC908032242EA88
:108BF000014011A102F0D2FE3046AEE76431002000
:108C00006831002054010300DC000300525443206B
:108C1000696E7374616E636520616C7265616479FD
:108C200020696E697469616C697A65642E00000060
:108C300000E400E018ED00E05254433A20696E6908
:108C40007469616C697A65642E00000010B5014694
:108C500091F90400002807DB00F01F0301229A406D
:108C6000024B440943F8242000BF10BD00E200E09D
:108C700070B505460C4622460221284600F0A1F8B0
:108C800070BD10B504464FF48271204600F020F903
:108C900010BD10B504460021206803F06BFA10BD2A
:108CA00010B504460421206803F064FA10BD2DE9D4
:108CB000F84F04468846154699464FF4803000FA2E
:108CC00008FA4FF4A07000EB88001FFA80FB25F033
:108CD0007F455146204600F068F8206803F018FAF6
:108CE00006464146206803F003FA009032464146AA
:108CF000206803F008FA5946206803F014FA314658
:108D0000009806F039F8012806D1102003F09CFDE8
:108D10005946206803F007FA206803F0F9F906467F
:108D20003146284606F028F807465146206803F0E9
:108D30000AFA012F0FD16A1C4146206803F0E3F9BB
:108D4000102003F081FD206803F0E2F9B04225D045
:108D50000D20BDE8F88F2A464146206803F0D3F97C
:108D6000206803F0D5F90646681E314606F004F87F
:108D700007466FF07F40A0EB0900B84201D20D20FA
:108D8000E7E75FB96A1C4146206803F0BCF9206838
:108D900003F0BEF9B04201D00D20DAE701225146BE
:108DA000204600F00EF80020D3E770B504460D46CB
:108DB0002946206803F0C1F92946206803F0CCF960
:108DC00070BD70B504460E4615463146206803F066
:108DD000BAF91DB13146206803F0C4F970BD000036
:108DE000F8B505460C46284605F0ECFE05286AD283
:108DF000DFE800F003212A393F00DCB101212846D9
:108E000005F0F0FE002000906846FEF737F92A468C
:108E10000126002730463946FDF717FB2B4AD2E9D9
:108E2000003218431143294A03C29DF80000FEF79F
:108E30002BF900BF47E00CB1022000E00020014602
:108E4000284605F0CFFE3EE044B10321284605F058
:108E5000C9FE0121284606F0E1F903E00121284678
:108E600005F0C0FE2FE01CB90421284605F0BAFE2B
:108E700029E024B10321284605F0B4FE22E00021B8
:108E8000284605F0AFFE0021284606F0C7F900206D
:108E900000906846FEF7F2F82A4601260027304681
:108EA0003946FDF7D2FA0A46C143D043074B0CCBF3
:108EB00011401840054AC2E900109DF80000FEF775
:108EC000E3F800BF00BF00BFF8BD0000383100204C
:108ED00070B505460C462868015929B12146286815
:108EE00003F021F9012070BD0020FCE770B50446B5
:108EF0000D460622E11C681CFDF7E5FA08B90120C1
:108F000070BD0020FCE72DE9F04106460C461746EF
:108F10002546286910B1304629698847BDE8F081A7
:108F200070B505460C46208840F6772188421AD154
:108F30000D490E4A891AC908032242EA01400CA1D0
:108F400002F02CFDA088C01E104908800649074A7F
:108F5000891AC908032242EA01400C490B880A8891
:108F60000BA102F031FD70BD7C010300DC000300A9
:108F7000415454204D54552065786368616E67658F
:108F800020636F6D706C657465642E003030002056
:108F9000426C65204E5553206D6178206461746188
:108FA000206C656E6774682073657420746F203060
:108FB000782558282564290070B50E490E4801F01F
:108FC00053F8044600BF254625B100BF2846FDF7EB
:108FD00025FF00BF00BFF721074801F036F804461F
:108FE00000BF254625B100BF2846FDF717FF00BF8B
:108FF00000BF70BD218F02008835002070B5064685
:109000000C4604F11005E888102801DD092070BD28
:10901000E988304602F036FE6060606808B90420D6
:10902000F5E7EA88A9680023606802F0B6FE002030
:10903000EDE770B506460C4604F11005A8680088F7
:10904000102801DD092070BDA8680088811C304609
:1090500002F018FE6060606808B90420F3E7A968B0
:1090600000230222606802F098FEAB681A88E96863
:109070000223606802F091FE0020E4E770B50B481F
:10908000FFF74AFD0A4B0CCB841843F10005094950
:1090900003C9201A75EB010004D24FF08073E41865
:1090A00045F100052046294670BD000040310020F2
:1090B00050310020583100202DE9F0410446884607
:1090C000E0B2FFF701F90546287803F0A9FC07464E
:1090D0006878012800D100E00020784080F0010687
:1090E0004EB10648D0E900100023594058400143D2
:1090F00001D105F01BFFBDE8F081000038310020F0
:10910000014601208840704710B502F0B9FA08B94D
:1091100002F090FE10BD2DE9FC5F83460E4691469D
:109120001F46DDE90C45002E01DA704200E03046B2
:1091300082464FF0010803E09AFBF9FA08F10108B2
:10914000CA45F9DA474500D9B84634B1002E03DBE9
:1091500005F00400042800D1641E05F0020000B1EF
:1091600067B105F0010048B944B104E0641E202154
:109170005846FFF787F80CB1A045F7D3002E05DA63
:1091800076422D215846FFF77DF807E005F00400F0
:10919000042803D12B215846FFF774F805F002008C
:1091A00002280DD105F0010050B94FB944B104E0D7
:1091B000641E30215846FFF765F80CB1A045F7D37F
:1091C0003B464A4631465846CDE9004505F0CAFFC0
:1091D000BDE8FC9F30B5024600201378C3F380033E
:1091E000D3B1137803F00303012B02D0022B10D16B
:1091F00007E01388C3F383139B1C0C6823440B60A4
:1092000008E00B680225146805EB945423440B60B6
:1092100000E000BF00BF012030BD00002DE9F04795
:1092200081460C4616464FF480374FF4A07800254F
:1092300020E03946484602F098FFA8B1414648462A
:1092400002F084FF80B13946484602F073FF394688
:10925000484602F07EFF4146484602F05DFFE8B214
:109260001B4A52F8241088477F0008F104001FFAB7
:1092700080F86D1CB542DCD34FF48078012148465C
:1092800002F073FF68B14146484602F05FFF40B10B
:109290004146484602F040FF0D4850F82410042093
:1092A00088474FF482780221484602F05EFF68B199
:1092B0004146484602F04AFF40B14146484602F066
:1092C0002BFF034850F8241005208847BDE8F0879D
:1092D000003100202DE9F04704460E469046002755
:1092E00022E0384603F02EFA0546384603F031FAFC
:1092F00081462046294642580AB1012200E0002258
:1093000082B14846D4F80413014009B1012100E0BC
:10931000002139B12946204603F020FA2846D6E933
:1093200000219047781CC7B24745DADBBDE8F087DB
:109330002DE9F04786B004464FF49271E06803F0DF
:1093400026FAB8B14FF49271E06803F027FA874A21
:1093500007CA03AB07C3E068D0F88014C0F88014D4
:1093600000BFC8B28DF8100021684A6A486B03A993
:10937000904700BF4FF4A671E06803F008FA90B17F
:109380004FF4A671E06803F009FA784A0C32D2E98A
:1093900000109268CDE90402039121684A6A486B83
:1093A00003A9904700BF4FF48871E06803F0EFF91C
:1093B00000286CD04FF48871E06803F0EFF90021C9
:1093C000201D03F066FE06460121201D03F061FE0C
:1093D00007462068806A351A2068C06AA7EB000A31
:1093E000206886622068C76215B9BAF1000F4DD0B7
:1093F0002068006BA84202D22068006B00E028467B
:109400008146A5EB09080020039004900590206890
:1094100080690490CDF814902068C0692168886143
:1094200000202168C8612068006A60B12068006A75
:109430002168C86100202168086223681A6BD96915
:10944000E06803F0B2F921684A6A486B03A99047C3
:10945000B8F1000F05D12068006BA84215D1BE42BB
:1094600013D1424A183207CA8DE80700CDF80480AC
:1094700021684A6A486B694690472068C06921683C
:10948000886100202168C86100BF00BF00BF4FF4A1
:10949000AC71E06803F07BF9C0B14FF4AC71E068E7
:1094A00003F07CF9314A243207CA03AB07C32068B2
:1094B000C068049020680169059100202168C86097
:1094C00021684A6A486B03A9904700BF4FF4907126
:1094D000E06803F05CF9002844D04FF49071E06834
:1094E00003F05CF9E06840F24C5109580D462068E1
:1094F00040692844216848612068406921680969F9
:10950000884209D14FF4AC71E06803F047F90C21AF
:10951000E06803F053F924E0206800692168496994
:10952000471AFF2F03D8204605F019FD18E02068E0
:1095300040692168098F08442168C96846184FF4BA
:10954000A871E06803F023F94FF4A871E06803F014
:1095500025F921680A8F3146E06803F032F900BF2F
:1095600000BF00BF06B0BDE8F087000030F6020083
:1095700001460148405C7047E8F5020010B504461A
:10958000204603F0EFFB04490968084008B10120B8
:1095900010BD0020FCE70000F830002010B50446A4
:1095A0002046FFF7ADFD04490978084008B10120C5
:1095B00010BD0020FCE70000FC3000200146002226
:1095C0000AE0486830F812004FF6FF73984201D065
:1095D00001207047501C82B208889042F1DC0020C4
:1095E000F7E770B50446204603F0BCFB0546FDF7DF
:1095F0006FFD70BD10B504462046FFF781FD00F0F9
:109600000F0008B1012010BD0020FCE710B5024694
:109610000B8992F8C60200EB8004C4EB801002EBC9
:1096200040000089834201DA012010BD0020FCE7E0
:1096300070B50446E2B90D8994F8C60200EB8006C5
:10964000C6EB801004EB40000089854201D1002068
:1096500070BD0889401C188094F8C60200EB800594
:10966000C5EB801004EB4000008958800120EFE733
:109670000889401CD588A84201D10020E8E7088964
:10968000401C1880D088401E58800120E0E710B5AB
:109690000446204603F066FBC0F3100008B1012029
:1096A00010BD0020FCE70146887DC0F3C100012801
:1096B00004D0887DC0F3C100032801D10120704788
:1096C0000020FCE70146086808B102680A6070479C
:1096D00010B5044622460121002001F049FA00217C
:1096E00005E054F8210008B1012010BD491C0029F3
:1096F000F7D00020F9E7000010B50848007850B115
:10970000002405E0022C02D02046FEF7C1F9641CBB
:10971000042CF7D301E0FEF7FFF910BD583000200C
:1097200010B504460448007800F0010018B1034861
:109730000078FEF767FB10BD543000205030002049
:1097400010B503F045F820B903F068F8002001498E
:10975000887010BD1C52002010B502490868FFF740
:10976000E7FD10BD7C31002010B504460649C969EB
:10977000096A4A09044901238868002103F0C4FBEF
:10978000014801F0ABFC10BDA8F20200F7210180F6
:1097900017214180002101714171FB2181711B2141
:1097A000C171704770B54FF48041002002F0ACF9F0
:1097B000044600BF254625B100BF2846FDF72EFB15
:1097C00000BF00BF01F048FF70BD70472DE9FF41A9
:1097D00000272E4800F083FB2C48001F00F07FFB81
:1097E0002B48806803902B48056803982840284937
:1097F0000C3101EB800800BF03A94046FFF7EAFCEB
:1098000030B10398284022490C3101EB800800E078
:1098100000E0F1E700BF00240AE00398411C284063
:1098200003911B490C3151F820004DF82400641CB1
:10983000022CF2D3009800F0030001280DD002287A
:1098400014D1BDF806700421009801EB9050401E21
:10985000039901EB9000039009E0BDF806700098B1
:10986000C0F3831003990844039000E000BF00BFD9
:109870000648001F00F02CFB064616B10449039869
:109880008860384604B0BDE8F0810000D858002058
:10989000C0540020A031002088B0FFF783FF05F0FE
:1098A000CBFAFCF774FE202225496846FCF7E0FD60
:1098B000244B254A6946184601F05EFA064600BF69
:1098C000344624B100BF2046FDF7A8FA00BF00BF10
:1098D0001C4801F0D3F9FEF715FDFEF719FF04F05F
:1098E000D7F9FEF74FF8322404B90EE000BF4FF469
:1098F0007A7505B905E0154F4FEA85184046B84717
:1099000000BF601E041EF2D100BF1A211B2004F00C
:1099100085F8FFF751FB03F093FC04F0DBFE0C49E4
:109920000C4A891AC908032242EA01400AA102F03E
:1099300035F804F00FFF00BFFFF7E6FBFCE700007F
:10994000FCF20200A8F20200A1EF0200F1F2020014
:109950007C010300DC000300424C45205541525479
:109960002063656E7472616C206578616D706C65E2
:1099700020737461727465642E0000002DE9FF4F3E
:1099800087B0044691461E46A2462546BAF8060010
:109990009AF805104843001F0690BAF806B0301D2B
:1099A000B0FBFBF00590301DB0FBFBF10BFB110091
:1099B0000490D9F8000081190698814202D90698CE
:1099C000801B01E0D9F800000746C9F8007003E0E9
:1099D0002D680598401E059005980028F8D1039041
:1099E0000498ABEB0008B84501D9384600E0404682
:1099F000804623E00399089808440290281D0499A2
:109A000008440190149828B14246DDE90110FCF7A2
:109A10002FFD04E04246DDE90101FCF729FD0020AD
:109A200004902D68A7EB0807039840440390BB45BA
:109A300001D9384600E05846804600BF002FD9D1F2
:109A40000BB0BDE8F08F000070B503460C469CB12A
:109A500002F07EF8054600220AE0084800EB820189
:109A600008881E68B04202D11A60002070BD521CE6
:109A7000AA42F2D30520F9E70020F7E70000000032
:109A800014480068401C38B913480178124808305F
:109A90000078C0F3031205E00E4801684FF08050D3
:109AA000D0F83421062913D1D01E05280ED2DFE8C4
:109AB00000F0030507090B00012070470120FCE7B7
:109AC0000120FAE70120F8E70120F6E70120F4E79A
:109AD0000020F2E730010010E00F00F014480068A9
:109AE000401C38B913480178124808300078C0F398
:109AF000031205E00E4801684FF08050D0F8342181
:109B0000062913D1D01E05280ED2DFE800F0030588
:109B100007090B00012070470120FCE70120FAE74C
:109B20000120F8E70120F6E70120F4E70020F2E742
:109B300030010010E00F00F014480068401C38B9F4
:109B400013480178124808300078C0F3031205E08A
:109B50000E4801684FF08050D0F83421062913D107
:109B6000D01E05280ED2DFE800F0030507090B0020
:109B7000012070470120FCE70120FAE70120F8E707
:109B80000120F6E70120F4E70020F2E730010010A1
:109B9000E00F00F00F4801780E4808300078C0F35D
:109BA0000312062913D1D01E05280ED2DFE800F0DB
:109BB000030507090B00012070470020FCE7002087
:109BC000FAE70020F8E70020F6E70020F4E700209D
:109BD000F2E70000E00F00F00E4801684FF08050FF
:109BE000D0F83421062913D1D01E05280ED2DFE883
:109BF00000F0030507090B00002070470020FCE778
:109C00000020FAE70120F8E70120F6E70120F4E759
:109C10000020F2E7300100100E4801684FF080503C
:109C2000D0F83421062913D1D01E05280ED2DFE842
:109C300000F0030507090B00002070470020FCE737
:109C40000020FAE70020F8E70120F6E70120F4E71A
:109C50000020F2E73001001014480068401C38B9B9
:109C600013480178124808300078C0F3031205E069
:109C70000E4801684FF08050D0F83421062913D1E6
:109C8000D01E05280ED2DFE800F0030507090B00FF
:109C9000012070470120FCE70120FAE70120F8E7E6
:109CA0000120F6E70120F4E70020F2E73001001080
:109CB000E00F00F00F4801780E4808300078C0F33C
:109CC0000312062913D1D01E05280ED2DFE800F0BA
:109CD000030507090B00012070470020FCE7002066
:109CE000FAE70020F8E70020F6E70020F4E700207C
:109CF000F2E70000E00F00F014480068401C38B99B
:109D000013480178124808300078C0F3031205E0C8
:109D10000E4801684FF08050D0F83421062913D145
:109D2000D01E05280ED2DFE800F0030507090B005E
:109D3000012070470120FCE70120FAE70120F8E745
:109D40000120F6E70120F4E70020F2E730010010DF
:109D5000E00F00F00F4801780E4808300078C0F39B
:109D60000312062913D1D01E05280ED2DFE800F019
:109D7000030507090B00012070470020FCE70020C5
:109D8000FAE70020F8E70020F6E70020F4E70020DB
:109D9000F2E70000E00F00F00F4801780E480830AD
:109DA0000078C0F30312062913D1D01E05280ED265
:109DB000DFE800F0030507090B00012070470020D1
:109DC000FCE70020FAE70020F8E70020F6E7002093
:109DD000F4E70020F2E70000E00F00F0144800680C
:109DE000401C38B913480178124808300078C0F395
:109DF000031205E00E4801684FF08050D0F834217E
:109E0000062913D1D01E05280ED2DFE800F0030585
:109E100007090B00002070470020FCE70120FAE74B
:109E20000120F8E70120F6E70120F4E70020F2E73F
:109E300030010010E00F00F010B5044609B90E2003
:109E400010BD92FBF3F003FB102008B10920F7E7E7
:109E5000216000206060A060A281E38100BFEFE785
:109E600070B504460D4629462046FCF7D5F918B1D1
:109E70002A882168881870BD0020FCE770B5054667
:109E80000C4620886188884204D12846FCF706FAEF
:109E9000012070BD0020FCE770B504460D46294640
:109EA0002046FCF7DEF918B16A882168881870BD71
:109EB0000020FCE770B505460C4620886188884282
:109EC00004D12846FCF7C4F9012070BD0020FCE74E
:109ED00010B504460021204600F013F810BD10B55F
:109EE00004460121204600F022F810BDF8B50446D2
:109EF0000D466A4629462046FCF725FA0646009894
:109F0000F8BDF8B504460D466A4629462046FCF7DA
:109F100000FA06463046F8BDF8B504460D466A46D6
:109F200029462046FCF7DCF906463046F8BDF8B570
:109F300004460D466A4629462046FCF7DDF90646EA
:109F40000098F8BDF8B504460D466A4629462046F5
:109F5000FCF706FA06460098F8BDF8B50446002658
:109F6000002000906846FDF789F820680068616865
:109F7000884215D920680068401E22681060017868
:109F8000204600F033F80646207A21680978401A06
:109F9000C5B220680079A84201DA2068057100BFC7
:109FA0009DF80000FDF770F83046F8BD0246D06815
:109FB000081A138AB0FBF3F0C0B27047F8B5044634
:109FC0000D462E46002000906846FDF757F83146B2
:109FD0002046FFF7EBFF21680A68511C23681960CF
:109FE00010709DF80000FDF74FF8F8BD0246138A87
:109FF000D06801FB0300704710B5014600BF09B9E6
:10A000000E2010BD00BF087A0B79C01AC2B2D1E988
:10A010000030186005E008680368581C0C68206070
:10A020001A70101EA2F10103DAB2F4D10B68187194
:10A0300000BFE6E730B502460B46D40802F007023F
:10A04000012090401D5D284030BD024600BF0AB986
:10A050000E20704700BF172901DBF72901DD07201B
:10A06000F7E751800020F4E770B504460E4600BFC4
:10A070000CB90E2070BD00BF2661F72020806080E3
:10A08000FB202071002505E0A11D01EBC500FFF7B5
:10A090007DFB6D1C002DF7D00020EBE72DE9F0478C
:10A0A000064688464546B488012C01DBBDE8F087AA
:10A0B0003088242820D006DC102809D011280CD0A4
:10A0C000232823D11DE03A280CD055281ED10EE0BC
:10A0D0003146284603F0D2F919E03146284603F00C
:10A0E0000BFB14E03146284603F074FB0FE03146C9
:10A0F000284603F00BFB0AE03146284603F020FA1D
:10A1000005E03146284603F045FA00E000BF00BFF5
:10A11000A81D00EBC400007918B3A81D30F8341056
:10A120002046A5DF074657B90021A81D00EBC40053
:10A1300001710121A81D00EBC400417110E0112F35
:10A140000ED0384602F0F0FA81460749074A891ACC
:10A15000C908012242EA01404A4605A101F028FC53
:10A1600000BF00BFA2E70000E4000300DC00030022
:10A1700073645F626C655F67617474635F65786365
:10A1800068616E67655F6D74755F72657175657323
:10A190007428292072657475726E65642025732E8B
:10A1A000000000002DE9F04104460F46002500BFE5
:10A1B00014B90E20BDE8F08100BF204604F006F877
:10A1C00039462046FEF7D3F906462088B04211D121
:10A1D0002046FFF7F3F918B9206901F0B8FD0546EC
:10A1E00039462046FEF7D3F9054600BF284600B1A0
:10A1F000E0E700BF2846DDE72DE9F04704460D46BD
:10A200009046002700BF14B90E20BDE8F08700BFBC
:10A2100000BF0DB90E20F8E700BF204603F0D6FFBF
:10A2200041462046FEF7A3F906462878062802DABA
:10A230002088B04201D10720E7E706EB8602A1683B
:10A2400001EB820001F0ACFE50B14146284604F01B
:10A250005DF88146B9F1000F01D03846D5E700BF5F
:10A260002878194951F8200090B100BF206908B939
:10A270000E20CAE700BF2978134B53F82120294646
:10A2800020699047074600BF384600B1BDE700BFD0
:10A2900006EB8602A16801EB8200294601F0A3FECD
:10A2A00007463FB12878084951F8200010B1686886
:10A2B00001F025FD06EB8602A16801EB8200414614
:10A2C00003F0E2FE3846A0E7E4F30200F8B50446E6
:10A2D0000F463D4604B105B9F8BD2088112801D1CB
:10A2E000A68810E02088302804DB20884F2801DC75
:10A2F000A68808E02088502804DB20886F2801DC2D
:10A30000A68800E0E8E731462846FEF730F90090DD
:10A310002888BDF80010884200D1DDE72088112888
:10A320000BD14FF6FF70BDF80020696821F81200CC
:10A330006946E86801F057FE09E0BDF8002002EB2D
:10A340008202A96801EB8200314603F09DFE00BF46
:10A35000C2E72DE9F041074688463D46FC1D2078BE
:10A36000012802DB0420BDE8F08100260CE0C6EBEA
:10A37000C6012944481C06224146FCF7A4F808B946
:10A380000020F0E7701CC6B2012EF0DB002009E0CF
:10A3900018F800202178C1EBC1012944491C0A5456
:10A3A000411CC8B20628F3DB2078C0EBC000285C53
:10A3B00020F0FE002178C1EBC10168542078401CD8
:10A3C00020700020CFE72DE9F04786B004460E4606
:10A3D000B71C04F1160804F10C0994F814A0A07A33
:10A3E00010B906B0BDE8F08700F0C4F9142101A847
:10A3F000FCF757F853464A46414638468CDF054637
:10A4000005208DF80400029525B1606A10B101A8FD
:10A41000616A884700BFE4E74FF4C87242820621B0
:10A4200081811822C281002202827047817D21F041
:10A430000401091D8175A02202835022428300225B
:10A440008283817D21F0180181750122C2757047D8
:10A450002DE9F04105460E46144600BF15B90E2001
:10A46000BDE8F08100BF00BF0CB90E20F8E700BFC7
:10A47000022E05D1274639462846FFF76AFFEFE747
:10A480000720EDE7014600BF09B90E20704700BF65
:10A4900001F108020020107000BFF7E7F0B5044694
:10A4A0000B46164600BF0CB90E20F0BD00BF03F0EE
:10A4B000020068B903F0010050B903F0040038B994
:10A4C00003F0100020B903F0080008B90720ECE7FA
:10A4D0002046FFF7D7FF0746254603F0020008B1E4
:10A4E000012028726E720020DFE770B504460D4629
:10A4F000164600BF0CB90E2070BD00BF66620A216F
:10A500002046FBF7CEFFDDB12879A072287B2075AD
:10A51000286830B10E2204F116002968FBF7A8FF65
:10A5200002E02046FFF782FFA86828B1A86801680A
:10A53000E160406820610BE02046FFF76DFF07E017
:10A540002046FFF773FF2046FFF766FF0020A0724A
:10A5500004F12800A0641F214C2001530020CBE708
:10A560002DE9F04786B004460D460027B846142171
:10A5700001A8FBF796FF04F1160005902046FFF7AF
:10A5800092F888B102208DF80400029501A8616A52
:10A59000884704F1480100208ADF29462046FFF75A
:10A5A00012FF06B0BDE8F087667A4FF0000994F814
:10A5B00008A0BAF1000F13D0781CC7B22146284674
:10A5C000FCF714FB60B108F1010000F0FF089DF8F2
:10A5D0000C0020F00200801C8DF80C004FF00109E7
:10A5E00002954EB1B84507D100208DF804002946E8
:10A5F0002046FFF7E8FE0FE056B9B9F1000F07D08B
:10A6000000208DF8040029462046FFF7DCFE03E019
:10A6100003208DF804000295606A10B101A8616AF8
:10A62000884704F1480100208ADF00BFB9E72DE91F
:10A63000F04104460D462E4604F1080704F10408D3
:10A64000208810280DD01B2806D01D280ED1394691
:10A650003046FFF785FF0AE04146304600F024F817
:10A6600005E04146304600F005F800E000BF00BFBD
:10A67000BDE8F08130B585B004460D46142168462A
:10A68000FBF70FFF06208DF80000281D0190298898
:10A69000ADF8081004F116000490606A10B1684625
:10A6A000616A884705B030BD70B586B004460D4676
:10A6B0002E1D142101A8FBF7F4FE307801280DD1DE
:10A6C000606A58B104208DF8040004F1160005906A
:10A6D00030788DF8080001A8616A884706B070BD1F
:10A6E00030B585B0044600BF14B90E2005B030BDAA
:10A6F00000BF14216846FBF7D4FE00F03BF820466B
:10A70000FEF7D1FF38B1606A28B101208DF8000052
:10A710006846616A884704F1480104F116008ADF3F
:10A720000546082D0DD065B10749084A891AC908A0
:10A73000012242EA01402A4605A101F039F92846E2
:10A74000D4E70020D2E70000F4000300DC0003009F
:10A7500073645F626C655F6761705F7363616E5F96
:10A7600073746172742072657475726E65642030E2
:10A77000782578008BDF704701464FF080404058C5
:10A7800008B1012070470020FCE708B500224FF017
:10A7900080410A500958009100BF08BD0149086076
:10A7A0007047000008030040012291070A507047DB
:10A7B00010B500240F48007808B1852411E000206E
:10A7C0000C49886048600861C8600B4802F014F8C2
:10A7D000044601F0E7FE08B902F004F8012005493B
:10A7E000087001F0F5FF10B1012002498870204681
:10A7F00010BD00001C5200202185020008B5002079
:10A8000000906846FCF73AFC0748C068401E0649BD
:10A81000C8600846C06808B9FEF792FF9DF80000BE
:10A82000FCF732FC08BD00001C5200200FB438B504
:10A830000446059810B938BC5DF814FB0020009060
:10A8400006A800906A462046059900F012F80020FC
:10A85000009000BFEFE770B50446A06800B970BD76
:10A86000D4E90403A268216898470020A06000BFD3
:10A87000F5E72DE9FC5F82460D4614460DB9BDE8AB
:10A88000FC9F00BF2E786D1C06B9E1E0252E70D12B
:10A8900000274FF0010900BF2E782B2E0CD02D2E53
:10A8A00002D0302E0CD103E047F001076D1C0AE006
:10A8B00047F002076D1C06E047F004076D1C02E03C
:10A8C0004FF0000900BF00BFB9F1000FE4D14FF015
:10A8D000000800BF2A2E06D12168081D20600868E4
:10A8E00080446D1C0DE02E78302E01DB392E00DD0A
:10A8F00007E06D1CA6F1300008EB880100EB410871
:10A90000E8E700BF4FF0000B2E782E2E10D16D1C03
:10A9100000BF2E78302E01DB392E00DD07E06D1CE4
:10A92000A6F130000BEB8B0100EB410BF1E700BF10
:10A930002E7800BF6C2E01D0682E02D16D1C2E78AF
:10A9400000E000E0F6E700BF692E21D008DC252EEC
:10A950006DD0582E39D0632E0CD0642E6CD116E0F9
:10A96000702E4CD0732E3ED0752E1FD0782E63D112
:10A970002AE065E02168081D2060D1F8009009F008
:10A98000FF00019050460199FDF77CFC55E000BFA7
:10A990002168081D2060D1F800905B460A224946D4
:10A9A0005046CDE90087FEF7B6FB46E02168081D5A
:10A9B0002060D1F800905B460A2249465046CDE916
:10A9C000008704F0CFFB38E000BF2168081D20603D
:10A9D000D1F800905B46102249465046CDE90087E9
:10A9E00004F0C0FB29E02168081D20600868019080
:10A9F0003B4642465046019904F084F91DE0216827
:10AA0000081D2060D1F8009030215046FDF73AFC37
:10AA100078215046FDF736FC002008210B46102215
:10AA2000CDE900104946504604F09CFB05E0252185
:10AA30005046FDF727FC00E000BF00BF6D1C03E09F
:10AA400031465046FDF71EFC287800287FF41AAFE7
:10AA500000BF9AF80C0010B15046FFF7FCFE00BF93
:10AA60000DE7F0B5DDE9054500BF4FF0A0473E46D4
:10AA700041EA420747EA830747EA042747EA054CC9
:10AA800006F5E06747F820C0F0BDF0B5DDE9054503
:10AA900000BF4FF0A0473E4641EA420747EA83071E
:10AAA00047EA042747EA054C06F5E06747F820C067
:10AAB000F0BDF0B5DDE9054500BF4FF0A0473E46CB
:10AAC00041EA420747EA830747EA042747EA054C79
:10AAD00006F5E06747F820C0F0BD7CB505460C469A
:10AAE0000020009023460246014601902846FFF7C9
:10AAF000E0FF7CBDF0B501210A4600231C461D463F
:10AB000000BF4FF0A0473E4641EA420747EA8307AD
:10AB100047EA042747EA054C06F5E06747F820C0F6
:10AB200000BFF0BD1CB50446002000900346012282
:10AB3000114601902046FFF7BCFF1CBD10B50A4628
:10AB400000BF4FF0A043194601F5E06353F82030F1
:10AB500023F4403401F5E06343F8204053F82030FB
:10AB600043EA024401F5E06343F8204010BD0000D1
:10AB700038B503460A4C2468009418460BE05DF88B
:10AB80002040D4F8204514605DF820501468C5F8C2
:10AB90002045121D401C5C188442F0D838BD0000CE
:10ABA0000CF4020000BF4FF0A0410A46012303FA53
:10ABB00000F1C2F80C1500BF704701464A09002396
:10ABC0000AB95B1E00BF00BF01F01F0101208840D1
:10ABD000184008B1012070470020FCE7014600BF83
:10ABE0004FF0A040024600BFD2F81005C84000F068
:10ABF0000100704710B561B900BF00BF4FF0A0421F
:10AC00001346012404FA00F2C3F80C2500BF00BF6C
:10AC10000CE000BF00BF4FF0A0421346012404FA2D
:10AC200000F2C3F8082500BF00BF00BF10BD000040
:10AC300001460148084470470060004038B50446AA
:10AC40002046FFF7F5FF002101602046FFF7F0FFE7
:10AC50000068009000BF38BD10B504462046FFF7DD
:10AC6000E7FF0068012800D110BD0020FCE70000CC
:10AC70000149086070470000046300402DE9F0417D
:10AC800004462068FFF769F90546E069C068401C82
:10AC9000E169C8603DB900BF002700BF0020FCF794
:10ACA000BDF800BF00BFA06840B100BFA068082287
:10ACB000016801238B5000BF00BF05E0E06818B1B8
:10ACC00000BFE06802F0FBF9206940BBE169087A47
:10ACD00001F0F2FF074600BF0FB9012000E000209D
:10ACE0008046B8F1000F04D100BF0020FCF796F8B1
:10ACF00000BF00BFE169487A01F0DEFF074600BFF0
:10AD00000FB9012000E000208046B8F1000F04D107
:10AD100000BF0020FCF782F800BF00BF00BFE06961
:10AD2000856100232946626AA06900F034FB06466B
:10AD300000BF0EB9012000E00020074627B900BF80
:10AD40000020FCF76BF800BF00BF206990B100BF86
:10AD5000E169086AFCF782F94708052F01D93846EE
:10AD600000E0052007462169224608683946FCF7BD
:10AD70000BF900BFBDE8F0812DE9F04F8FB004461C
:10AD80000D4691469A46687F072805D0206938B15C
:10AD900000BF687F062803DB07200FB0BDE8F08FF7
:10ADA000E06990F8270008B10820F6E7E069C0F8EC
:10ADB00000900020E1690861E1698861E169C8618A
:10ADC000E1694861E169C860E069C0F804A02869E8
:10ADD000E16908620020E16981F82600287D0128E8
:10ADE00000D100E00020E16981F825004FF0000B60
:10ADF000D84600200E900D90A068002837D000BFE4
:10AE00008E4903C9CDE90001687FFEF7B1FB8DF8DB
:10AE100002000020ADF800006946226AA06802F036
:10AE2000CBF806460EB10320B7E729694A0901238A
:10AE30000021A06802F068F806460EB10320ACE7D6
:10AE40000021A06802F020F983460821A06802F0E2
:10AE50001BF980460421A06802F016F90E904FF409
:10AE6000A070A1680A68131800BF0D9363E0E06842
:10AE700000283AD000BF7149083103C9CDE900016B
:10AE800004208DF800000194687FFEF771FB8DF8B7
:10AE900003006B4A6946E06802F04EF906460EB1BF
:10AEA00003207AE72A6901230021E06802F00EF905
:10AEB0000021E06802F0BEF983460C21E06802F050
:10AEC000B9F980461021E06802F0B4F90E90002133
:10AED000E26813684FF4A07C0CEB810000BF03EB29
:10AEE000000C00BFCDF834C025E02069C8B100BF18
:10AEF000E06990F8240060B9524A00212069FBF70C
:10AF0000A9FF06460EB1304647E70120E16981F806
:10AF10002400002061690872616908606169486005
:10AF200009E000BF0020019000BFFBF777FF00BFE2
:10AF300000BF032031E7206900B144E0002709E0A9
:10AF4000E1690831C81901F041FE06460EB103203F
:10AF500023E77F1C022FF3D3A169C8684FF48471E3
:10AF600001F00FFC0190E169087A5A46019901F05D
:10AF700065FE06460EB103200FE7B8F1000F08D0BA
:10AF8000E169087A414601F0B5FE06460EB103209C
:10AF900003E7E169487ADDE90D1201F04FFE06464C
:10AFA0000EB10320F9E6A06940684C3058B1A2699F
:10AFB000526802F14C01E269507A01F09BFE0646AC
:10AFC0000EB10320E9E62C2102A8FBF76AFA6868B3
:10AFD000029028680390A8680490E8680590A16929
:10AFE000C8684FF4887101F0CCFB0690287D8DF87D
:10AFF0002800687D8DF82900A8690B90687F8DF87E
:10B000003000287F8DF8310023460F4A02A9A0693D
:10B0100000F0CEF806460EB13046BEE62068FEF7D8
:10B02000EBFF06460EB13046B7E6606801F041F826
:10B030000120E16981F827003046AEE614F60200EF
:10B040004FEF02007D6E020021F002002DE9F04179
:10B0500004460E461546E069C0692844E169C861A6
:10B06000E069C069616A884228D1E069C069401B13
:10B07000361A0020E169C86131462068FEF79EFF5C
:10B08000E069C068401EE169C860E069C0680028E6
:10B0900007DA00BF002700BF0020FBF7BFFE00BF9C
:10B0A00000BFE06990F82600A8B1204603F054FAEA
:10B0B00007460020E16981F826000CE0E069C069DC
:10B0C000616A884207D900BF002700BF0020FBF754
:10B0D000A5FE00BF00BFBDE8F0810000FEB504463C
:10B0E000A069C068000B41B20846002817DB00F0D9
:10B0F0001F0301229A40284B460943F8262000BF2F
:10B1000000BF00BFBFF34F8F00BF00BF00BF00BF35
:10B1100000BF00BFBFF36F8F00BF00BF00BF00BF05
:10B1200000BFA0694068D0F84C55E0690069A842AA
:10B130001AD2E06900692E1A002000900190029056
:10B14000E0698069E1694969084401900296E06913
:10B1500040693044E1694861E0690561E169D1E92C
:10B1600000206946904700BFA069C068000B41B24B
:10B17000084600280DDB00BF00BF00F01F030122BE
:10B180009A4043099B0003F1E023C3F8002100BF6C
:10B1900000BF00BF00BFFEBD80E100E070B5044607
:10B1A0000D46164632462946A06900F02AF970BDC0
:10B1B0002DE9FC4704460D4690469946E06801F0AB
:10B1C0005BFB0646206890F83C0010B10820BDE803
:10B1D000FC872068C0F824800020216888612168ED
:10B1E000C861216808622168C8602068C0F834908E
:10B1F000FF20216881F83A005449E068884201D074
:10B20000012000E00020524941F82040296800BF99
:10B210004FF0A0400246012303FA01F0C2F80805EE
:10B2200000BF00BF2868FFF77DFC95F829200AB110
:10B23000032200E0002211466868FFF74EFCE06838
:10B24000696AC0F8241500BF95F8211095F82020F0
:10B25000E06841EA0203C0F86C3500BFE068D5E958
:10B26000001240F20C53195040F214531A5000BF10
:10B2700000BF95F82000012802D100BF0720A6E7F3
:10B28000022E06D13349E06801F016FE08B1112004
:10B290009DE73149E068C0F8041300BF304695F8D7
:10B2A0002810002804DB4A07130E2C4A135408E028
:10B2B0004A074FEA126C2A4A00F00F031B1F02F8DC
:10B2C00003C000BF3046002807DB00F01F02012149
:10B2D0009140244A430942F8231000BF3046002819
:10B2E0000DDB00BF00BF00F01F02012191404209A9
:10B2F000920002F1E022C2F8001100BF00BF00BFBF
:10B30000E0680821C0F8001500BF174903C9CDE95E
:10B31000000101208DF8010003208DF80200134A7E
:10B320006946201D01F008FF07460FB103204EE7D4
:10B330002946204602F0F7FC07460FB1032046E7F6
:10B340000120216881F83C00002040E700200040F7
:10B350007C310020599702001003480000E400E00F
:10B3600018ED00E080E200E028F602005DEF020048
:10B3700070B504460D4616462068C06938B9206885
:10B38000C56132462946E06801F00FFA01E0206805
:10B39000056200BF70BD2DE9F04104460D4616461A
:10B3A0001F462068806910B11120BDE8F081206837
:10B3B000066335B12068856132462946E06801F0B0
:10B3C000F4F9201D01F0A6FE201D01F078FE0020FA
:10B3D000216888622168C8624FF48871E06801F0D2
:10B3E000DDF94FF4A671E06801F0D8F9204603F0CA
:10B3F000D1F800BF1FB90021E06801F0DFF900209B
:10B40000D3E72DE9F04104460F4615462068C06891
:10B4100010B11120BDE8F0812068C7602068056187
:10B42000002021684861FF2D03D8AEB2216808874B
:10B4300013E005F1FE01FF22B1FBF2F0B5FBF0F1E4
:10B44000226811872168098FB5FBF1F201FB1251C7
:10B450002268128F11448EB200BF32463946E0682E
:10B4600001F0AFF94FF4A871E06801F097F90821F5
:10B47000E06801F0A3F9FF2D16D900BF4FF4A871C1
:10B48000E06801F084F90028F8D04FF4A871E06872
:10B4900001F084F9204603F072FD23681A8FDB68FF
:10B4A0009919E06801F08DF90020B3E770B5044602
:10B4B0000E46FBF715FE0546681C08B9284670BD08
:10B4C000E8B2E168087100BF0C48D0F8100430B948
:10B4D0000A48C0F810440020E16808600BE0074803
:10B4E000D0F81004C0680068E16808600348D0F82C
:10B4F0001004C06804602846E1E70000C054002042
:10B50000704710B5FBF7F2F810BD704738B5044628
:10B510000D4604484023044A29460090204600F086
:10B5200005F838BD9DE90200285300202DE9F04FB1
:10B5300093B082460E4617469846DDF87090304626
:10B5400000F0FDFB18210DA8FAF7ABFF0D97CDF821
:10B550003880CDF8489000252B46082207A93046B0
:10B5600000F00AFC082509980A90BDF82000ADF803
:10B570002C00BDF82200ADF82E0000208DF831001F
:10B58000079800F0030001281BD107984FEA902B81
:10B590000798C0F3C2008DF830000798C0F38314F9
:10B5A000A2002B4601A9304600F0E6FB05EB84051E
:10B5B0000DA80AAB224601A90090584600F0FEFAF9
:10B5C00027E0079800F00300022822D107984FEAED
:10B5D000905B0798C0F3C2008DF8300000BFBBF14C
:10B5E000080F01D2584600E0082004462B462246A8
:10B5F00005A9304600F0C0FB2544ABEB040B0DABB6
:10B600000AAA214605A800F021FABBF1000FE6D1F5
:10B6100000BF304600F0A1FB13B0BDE8F08F000082
:10B6200010B502460B4C04EBC203012906D00229D7
:10B6300006D0032906D0042908D105E0022007E03E
:10B64000042005E0187903E0587901E0002000BFEC
:10B6500000BF10BDDC00030010B54FF0FF34FFF752
:10B6600050FF04210548FFF721FF044600BF0120D9
:10B670000249C968487100BF10BD0000CC0003003A
:10B680002DE9F04F8BB0FCF713FE18B100200BB082
:10B69000BDE8F08F0020B749C1F8180400BF00BF13
:10B6A00000BFBFF34F8F00BF00BF00BF08468068D8
:10B6B0000A90B14804680A9820400C3101EB800AD6
:10B6C000002500260020069000BF0AA95046FDF77D
:10B6D00081FDA8B1A748D0F8180488B9A5484068EA
:10B6E0000A99884205D8A3484068A249886000208A
:10B6F000CDE70A9820409F490C3101EB800A00E019
:10B7000000E0E2E700BF00270BE00A98411C204060
:10B710000A9198490C3151F8200007A941F82700F7
:10B720007F1C022FF1D3079800F0030002287CD180
:10B730000798800D059050210798B1EB905F02DDCE
:10B740000798800D00E050208146079869F39F50CC
:10B75000079009F1080004900798C0F3C200069012
:10B760008648049900F08EFA0546002D5BD02846E5
:10B7700000F0E5FA3346082207A9284600F00DFB41
:10B7800008360A982040611C081A4FEA8008C14513
:10B7900035D9B8F1000F06D00A98204075490C3110
:10B7A00001EB800001E073480C300390B8F1000F0A
:10B7B00001D0404600E0484600F0FF0BB8F1000F12
:10B7C00002D06C480C3000E000200290B8F1000F6D
:10B7D00002D0A9EB080000E00020C0B2019033467F
:10B7E0005A462846039900F0D8FA5E44029828B1D8
:10B7F00033462846DDE9012100F0CFFA0CE00A9833
:10B8000020405C490C3101EB800B33464A465946D7
:10B81000284600F0C2FA00BF0598C01C0A9901EB47
:10B8200090000A9000BF44E0FFE7079800F0030093
:10B8300001283ED10798C0F38310062803DA079841
:10B84000C0F3831000E00620079960F38911079187
:10B850000798C0F3831000F102080798C0F3C200F4
:10B8600006904FEA8801454800F00CFA0546FDB104
:10B87000284600F064FA3346082207A9284600F05B
:10B880008CFA083600270EE00A98421C20400A92E3
:10B89000384A0C3202EB800133460422284600F07D
:10B8A0007CFA361D7F1C0798C0F38310B842EBD892
:10B8B00000BFE5B32F48D0F81084D0F8180418B1B1
:10B8C000284600F04AFA31E019E04FF0000900BFC5
:10B8D000D8F80C004079012800D18146B9F1000F59
:10B8E00008D000BFD8F800002946026840469047BB
:10B8F00000BF00BFD8F80C00D0F8008000BFB8F13E
:10B90000000FE2D1284600F028FA0020059005A893
:10B91000FBF7B4FB1748D0F8180410B915490A987A
:10B9200088609DF81400FBF7AFFB00BF1DE0FFE748
:10B930001048D0F810840AE0C146D9F800008168A8
:10B940004846884700BFD8F80C00D0F80080B8F10E
:10B95000000FF1D10A490B4A891AC908022242EAAA
:10B96000014009A100F01AF800BFFCF7A1FC80F02B
:10B9700001008CE6C0540020A0310020C401030067
:10B980007C010300DC0003004261636B656E64733D
:10B9900020666C75736865640000000070B504462D
:10B9A0000D4600231A462946204603F071F970BD62
:10B9B000F8B505460E461446009401236A46314602
:10B9C000284603F065F9F8BD2DE9FC4106460F460F
:10B9D00014461D460094019502236A4639463046B6
:10B9E00003F056F9BDE8FC812DE9FE4306460F46FB
:10B9F00014461D46DDF8288000940195CDF8088096
:10BA000003236A463946304603F042F9BDE8FE8317
:10BA10002DE9F04F87B006460F4614461D46DDE976
:10BA200012ABDDE9108901940295CDF80C80CDF8B8
:10BA30001090CDF814A0CDF818B0062301AA39460D
:10BA4000304603F025F907B0BDE8F08F2DE9F05F2F
:10BA500007460E4690461D46082E01D9BDE8F09FC8
:10BA600095F80C90002028732946404602F0AEFA63
:10BA700000240CE0B44205D23A5D1DA12846FEF731
:10BA8000D5FE03E01CA12846FEF7D0FE641C082C5E
:10BA9000F0D31AA12846FEF7C9FE00241DE0B442E7
:10BAA00016D217F804A0BAF17E0F09DCFAF7DCFC15
:10BAB000006810F80A0000F03E0008B1504600E0AF
:10BAC0002E2083465A460EA12846FEF7AFFE03E01D
:10BAD0000CA12846FEF7AAFE641C082CDFD3012225
